{
  "contractName": "Charger",
  "abi": [
    {
      "inputs": [
        {
          "internalType": "uint16",
          "name": "_power",
          "type": "uint16"
        },
        {
          "internalType": "enum Charger.TypeOfCable",
          "name": "_cableType",
          "type": "uint8"
        },
        {
          "internalType": "uint256",
          "name": "_tariff",
          "type": "uint256"
        },
        {
          "internalType": "string",
          "name": "_latitude",
          "type": "string"
        },
        {
          "internalType": "string",
          "name": "_longitude",
          "type": "string"
        },
        {
          "internalType": "address",
          "name": "_oracleAddress",
          "type": "address"
        },
        {
          "internalType": "address payable",
          "name": "_ownerAddress",
          "type": "address"
        }
      ],
      "payable": false,
      "stateMutability": "nonpayable",
      "type": "constructor"
    },
    {
      "anonymous": false,
      "inputs": [
        {
          "indexed": false,
          "internalType": "bool",
          "name": "wasWorking",
          "type": "bool"
        },
        {
          "indexed": false,
          "internalType": "bool",
          "name": "isWorking",
          "type": "bool"
        }
      ],
      "name": "ChangeWorkingStateCharger",
      "type": "event"
    },
    {
      "anonymous": false,
      "inputs": [
        {
          "indexed": false,
          "internalType": "uint256",
          "name": "startTime",
          "type": "uint256"
        },
        {
          "indexed": false,
          "internalType": "uint16",
          "name": "durationInMinutes",
          "type": "uint16"
        },
        {
          "indexed": false,
          "internalType": "uint64",
          "name": "secretSessionId",
          "type": "uint64"
        }
      ],
      "name": "DepositWasClosed",
      "type": "event"
    },
    {
      "anonymous": false,
      "inputs": [
        {
          "indexed": false,
          "internalType": "uint256",
          "name": "startTime",
          "type": "uint256"
        },
        {
          "indexed": false,
          "internalType": "uint16",
          "name": "durationInFiveMinutes",
          "type": "uint16"
        },
        {
          "indexed": false,
          "internalType": "uint64",
          "name": "secretSessionId",
          "type": "uint64"
        },
        {
          "indexed": false,
          "internalType": "uint256",
          "name": "receivedMoney",
          "type": "uint256"
        }
      ],
      "name": "DepositWasRegistered",
      "type": "event"
    },
    {
      "constant": true,
      "inputs": [],
      "name": "cableType",
      "outputs": [
        {
          "internalType": "enum Charger.TypeOfCable",
          "name": "",
          "type": "uint8"
        }
      ],
      "payable": false,
      "stateMutability": "view",
      "type": "function"
    },
    {
      "constant": true,
      "inputs": [],
      "name": "isWorking",
      "outputs": [
        {
          "internalType": "bool",
          "name": "",
          "type": "bool"
        }
      ],
      "payable": false,
      "stateMutability": "view",
      "type": "function"
    },
    {
      "constant": true,
      "inputs": [],
      "name": "latitude",
      "outputs": [
        {
          "internalType": "string",
          "name": "",
          "type": "string"
        }
      ],
      "payable": false,
      "stateMutability": "view",
      "type": "function"
    },
    {
      "constant": true,
      "inputs": [],
      "name": "longitude",
      "outputs": [
        {
          "internalType": "string",
          "name": "",
          "type": "string"
        }
      ],
      "payable": false,
      "stateMutability": "view",
      "type": "function"
    },
    {
      "constant": true,
      "inputs": [],
      "name": "ownerAddress",
      "outputs": [
        {
          "internalType": "address payable",
          "name": "",
          "type": "address"
        }
      ],
      "payable": false,
      "stateMutability": "view",
      "type": "function"
    },
    {
      "constant": true,
      "inputs": [],
      "name": "power",
      "outputs": [
        {
          "internalType": "uint16",
          "name": "",
          "type": "uint16"
        }
      ],
      "payable": false,
      "stateMutability": "view",
      "type": "function"
    },
    {
      "constant": true,
      "inputs": [],
      "name": "tariff",
      "outputs": [
        {
          "internalType": "uint256",
          "name": "",
          "type": "uint256"
        }
      ],
      "payable": false,
      "stateMutability": "view",
      "type": "function"
    },
    {
      "constant": true,
      "inputs": [],
      "name": "getInfo",
      "outputs": [
        {
          "internalType": "uint16",
          "name": "",
          "type": "uint16"
        },
        {
          "internalType": "enum Charger.TypeOfCable",
          "name": "",
          "type": "uint8"
        },
        {
          "internalType": "uint256",
          "name": "",
          "type": "uint256"
        },
        {
          "internalType": "string",
          "name": "",
          "type": "string"
        },
        {
          "internalType": "string",
          "name": "",
          "type": "string"
        },
        {
          "internalType": "bool",
          "name": "",
          "type": "bool"
        }
      ],
      "payable": false,
      "stateMutability": "view",
      "type": "function"
    },
    {
      "constant": false,
      "inputs": [
        {
          "internalType": "uint256",
          "name": "_startTime",
          "type": "uint256"
        },
        {
          "internalType": "uint16",
          "name": "_durationInFiveMinutes",
          "type": "uint16"
        },
        {
          "internalType": "uint64",
          "name": "_secretSessionId",
          "type": "uint64"
        }
      ],
      "name": "registerDeposit",
      "outputs": [],
      "payable": true,
      "stateMutability": "payable",
      "type": "function"
    },
    {
      "constant": true,
      "inputs": [
        {
          "internalType": "uint16",
          "name": "_durationInFiveMinutes",
          "type": "uint16"
        }
      ],
      "name": "calculateRequiredDeposit",
      "outputs": [
        {
          "internalType": "uint256",
          "name": "",
          "type": "uint256"
        }
      ],
      "payable": false,
      "stateMutability": "view",
      "type": "function"
    },
    {
      "constant": false,
      "inputs": [
        {
          "internalType": "uint256",
          "name": "_startTime",
          "type": "uint256"
        },
        {
          "internalType": "uint64",
          "name": "_secretSessionId",
          "type": "uint64"
        }
      ],
      "name": "cancelOrder",
      "outputs": [],
      "payable": true,
      "stateMutability": "payable",
      "type": "function"
    },
    {
      "constant": false,
      "inputs": [
        {
          "internalType": "uint256",
          "name": "_startTime",
          "type": "uint256"
        },
        {
          "internalType": "uint16",
          "name": "_timeInMinutes",
          "type": "uint16"
        }
      ],
      "name": "closeOrder",
      "outputs": [],
      "payable": true,
      "stateMutability": "payable",
      "type": "function"
    },
    {
      "constant": false,
      "inputs": [
        {
          "internalType": "bool",
          "name": "_value",
          "type": "bool"
        }
      ],
      "name": "setIsWorking",
      "outputs": [],
      "payable": false,
      "stateMutability": "nonpayable",
      "type": "function"
    },
    {
      "constant": false,
      "inputs": [
        {
          "internalType": "address payable",
          "name": "receiver",
          "type": "address"
        }
      ],
      "name": "transferMoney",
      "outputs": [],
      "payable": true,
      "stateMutability": "payable",
      "type": "function"
    },
    {
      "constant": false,
      "inputs": [],
      "name": "destructThisContract",
      "outputs": [],
      "payable": false,
      "stateMutability": "nonpayable",
      "type": "function"
    }
  ],
  "bytecode": "0x60806040523480156200001157600080fd5b506040516200277e3803806200277e833981810160405260e08110156200003757600080fd5b81019080805190602001909291908051906020019092919080519060200190929190805160405193929190846401000000008211156200007657600080fd5b838201915060208201858111156200008d57600080fd5b8251866001820283011164010000000082111715620000ab57600080fd5b8083526020830192505050908051906020019080838360005b83811015620000e1578082015181840152602081019050620000c4565b50505050905090810190601f1680156200010f5780820380516001836020036101000a031916815260200191505b50604052602001805160405193929190846401000000008211156200013357600080fd5b838201915060208201858111156200014a57600080fd5b82518660018202830111640100000000821117156200016857600080fd5b8083526020830192505050908051906020019080838360005b838110156200019e57808201518184015260208101905062000181565b50505050905090810190601f168015620001cc5780820380516001836020036101000a031916815260200191505b506040526020018051906020019092919080519060200190929190505050866000806101000a81548161ffff021916908361ffff16021790555085600060026101000a81548160ff021916908360028111156200022557fe5b02179055508460018190555083600290805190602001906200024992919062000346565b5082600390805190602001906200026292919062000346565b506001600460006101000a81548160ff02191690831515021790555080600460016101000a81548173ffffffffffffffffffffffffffffffffffffffff021916908373ffffffffffffffffffffffffffffffffffffffff16021790555081600560006101000a81548173ffffffffffffffffffffffffffffffffffffffff021916908373ffffffffffffffffffffffffffffffffffffffff16021790555060006006819055506000604960006101000a81548161ffff021916908361ffff16021790555061012c42816200033257fe5b04604a8190555050505050505050620003f5565b828054600181600116156101000203166002900490600052602060002090601f016020900481019282601f106200038957805160ff1916838001178555620003ba565b82800160010185558215620003ba579182015b82811115620003b95782518255916020019190600101906200039c565b5b509050620003c99190620003cd565b5090565b620003f291905b80821115620003ee576000816000905550600101620003d4565b5090565b90565b61237980620004056000396000f3fe6080604052600436106100e85760003560e01c806378e6aee51161008a57806398d1edf91161005957806398d1edf91461050b578063996e862b1461055b5780639f69ad54146105ae5780639f908a20146105ea576100e8565b806378e6aee5146103f55780637e18dc9b1461043757806386ce9835146104705780638f84aa09146104b4576100e8565b80634a4d59fa116100c65780634a4d59fa146101705780634fd7d76a146101a3578063589af69c146102335780635a9b0b89146102c3576100e8565b806302349968146100ed578063099aea0a1461012a5780633eeaa4ea14610159575b600080fd5b3480156100f957600080fd5b506101286004803603602081101561011057600080fd5b81019080803515159060200190929190505050610615565b005b34801561013657600080fd5b5061013f61086b565b604051808215151515815260200191505060405180910390f35b34801561016557600080fd5b5061016e61087e565b005b34801561017c57600080fd5b5061018561095f565b604051808261ffff1661ffff16815260200191505060405180910390f35b3480156101af57600080fd5b506101b8610972565b6040518080602001828103825283818151815260200191508051906020019080838360005b838110156101f85780820151818401526020810190506101dd565b50505050905090810190601f1680156102255780820380516001836020036101000a031916815260200191505b509250505060405180910390f35b34801561023f57600080fd5b50610248610a10565b6040518080602001828103825283818151815260200191508051906020019080838360005b8381101561028857808201518184015260208101905061026d565b50505050905090810190601f1680156102b55780820380516001836020036101000a031916815260200191505b509250505060405180910390f35b3480156102cf57600080fd5b506102d8610aae565b604051808761ffff1661ffff1681526020018660028111156102f657fe5b60ff168152602001858152602001806020018060200184151515158152602001838103835286818151815260200191508051906020019080838360005b8381101561034e578082015181840152602081019050610333565b50505050905090810190601f16801561037b5780820380516001836020036101000a031916815260200191505b50838103825285818151815260200191508051906020019080838360005b838110156103b4578082015181840152602081019050610399565b50505050905090810190601f1680156103e15780820380516001836020036101000a031916815260200191505b509850505050505050505060405180910390f35b6104356004803603604081101561040b57600080fd5b8101908080359060200190929190803567ffffffffffffffff169060200190929190505050610c3b565b005b34801561044357600080fd5b5061044c61115c565b6040518082600281111561045c57fe5b60ff16815260200191505060405180910390f35b6104b26004803603602081101561048657600080fd5b81019080803573ffffffffffffffffffffffffffffffffffffffff16906020019092919050505061116f565b005b3480156104c057600080fd5b506104c9611286565b604051808273ffffffffffffffffffffffffffffffffffffffff1673ffffffffffffffffffffffffffffffffffffffff16815260200191505060405180910390f35b6105596004803603606081101561052157600080fd5b8101908080359060200190929190803561ffff169060200190929190803567ffffffffffffffff1690602001909291905050506112ac565b005b34801561056757600080fd5b506105986004803603602081101561057e57600080fd5b81019080803561ffff169060200190929190505050611b1c565b6040518082815260200191505060405180910390f35b6105e8600480360360408110156105c457600080fd5b8101908080359060200190929190803561ffff169060200190929190505050611bc0565b005b3480156105f657600080fd5b506105ff612226565b6040518082815260200191505060405180910390f35b600460019054906101000a900473ffffffffffffffffffffffffffffffffffffffff1673ffffffffffffffffffffffffffffffffffffffff163373ffffffffffffffffffffffffffffffffffffffff16146106d8576040517f08c379a00000000000000000000000000000000000000000000000000000000081526004018080602001828103825260198152602001807f7365744973576f726b696e675f756e617574686f72697a65640000000000000081525060200191505060405180910390fd5b6000600460009054906101000a900460ff16905081600460006101000a81548160ff0219169083151502179055508080156107205750600460009054906101000a900460ff16155b156108205760096000610733919061222c565b600a60006107419190612254565b60008090505b6008805490508161ffff1610156108105760088161ffff168154811061076957fe5b906000526020600020906003020160010160029054906101000a900473ffffffffffffffffffffffffffffffffffffffff1673ffffffffffffffffffffffffffffffffffffffff166108fc60088361ffff16815481106107c557fe5b9060005260206000209060030201600201549081150290604051600060405180830381858888f19350505050158015610802573d6000803e3d6000fd5b508080600101915050610747565b6008600061081e919061226f565b505b7fa488f15b90291ec903659b47b5702c8148654e0f334d9bde8d785adfb7c14ea181836040518083151515158152602001821515151581526020019250505060405180910390a15050565b600460009054906101000a900460ff1681565b600460019054906101000a900473ffffffffffffffffffffffffffffffffffffffff1673ffffffffffffffffffffffffffffffffffffffff163373ffffffffffffffffffffffffffffffffffffffff1614610924576040517f08c379a00000000000000000000000000000000000000000000000000000000081526004018080602001828103825260218152602001806123246021913960400191505060405180910390fd5b600460019054906101000a900473ffffffffffffffffffffffffffffffffffffffff1673ffffffffffffffffffffffffffffffffffffffff16ff5b6000809054906101000a900461ffff1681565b60028054600181600116156101000203166002900480601f016020809104026020016040519081016040528092919081815260200182805460018160011615610100020316600290048015610a085780601f106109dd57610100808354040283529160200191610a08565b820191906000526020600020905b8154815290600101906020018083116109eb57829003601f168201915b505050505081565b60038054600181600116156101000203166002900480601f016020809104026020016040519081016040528092919081815260200182805460018160011615610100020316600290048015610aa65780601f10610a7b57610100808354040283529160200191610aa6565b820191906000526020600020905b815481529060010190602001808311610a8957829003601f168201915b505050505081565b600080600060608060008060009054906101000a900461ffff16600060029054906101000a900460ff1660015460026003600460009054906101000a900460ff16828054600181600116156101000203166002900480601f016020809104026020016040519081016040528092919081815260200182805460018160011615610100020316600290048015610b845780601f10610b5957610100808354040283529160200191610b84565b820191906000526020600020905b815481529060010190602001808311610b6757829003601f168201915b50505050509250818054600181600116156101000203166002900480601f016020809104026020016040519081016040528092919081815260200182805460018160011615610100020316600290048015610c205780601f10610bf557610100808354040283529160200191610c20565b820191906000526020600020905b815481529060010190602001808311610c0357829003601f168201915b50505050509150955095509550955095509550909192939495565b600460009054906101000a900460ff16610cbd576040517f08c379a000000000000000000000000000000000000000000000000000000000815260040180806020018281038252601c8152602001807f72656769737465724465706f7369745f69734e6f74576f726b696e670000000081525060200191505060405180910390fd5b60006007600084815260200190815260200160002060000160009054906101000a900461ffff169050600060088054905014158015610d6957503373ffffffffffffffffffffffffffffffffffffffff1660088261ffff1681548110610d1f57fe5b906000526020600020906003020160010160029054906101000a900473ffffffffffffffffffffffffffffffffffffffff1673ffffffffffffffffffffffffffffffffffffffff16145b610ddb576040517f08c379a000000000000000000000000000000000000000000000000000000000815260040180806020018281038252601d8152602001807f63616e63656c4f726465725f6f72646572446f65734e6f74457869737400000081525060200191505060405180910390fd5b60006064605f60088461ffff1681548110610df257fe5b9060005260206000209060030201600201540281610e0c57fe5b0490508060088361ffff1681548110610e2157fe5b90600052602060002090600302016002015403600660008282540192505081905550600982908060018154018082558091505090600182039060005260206000209060109182820401919006600202909192909190916101000a81548161ffff021916908361ffff1602179055505060088261ffff1681548110610ea157fe5b90600052602060002090600302016000808201600090556001820160006101000a81549061ffff02191690556001820160026101000a81549073ffffffffffffffffffffffffffffffffffffffff0219169055600282016000905550506007600085815260200190815260200160002060000160029054906101000a900461ffff16915060006007600086815260200190815260200160002060000160049054906101000a900461ffff1690508061ffff168361ffff161015610fb4575b8061ffff168361ffff161015610faf576000600a8461ffff166107e08110610f8357fe5b602091828204019190066101000a81548160ff0219169083151502179055508280600101935050610f5f565b611059565b5b6107e08361ffff161015611003576000600a8461ffff166107e08110610fd757fe5b602091828204019190066101000a81548160ff0219169083151502179055508280600101935050610fb5565b600092505b8061ffff168361ffff161015611058576000600a8461ffff166107e0811061102c57fe5b602091828204019190066101000a81548160ff0219169083151502179055508280600101935050611008565b5b60076000868152602001908152602001600020600080820160006101000a81549061ffff02191690556000820160026101000a81549061ffff02191690556000820160046101000a81549061ffff021916905550503373ffffffffffffffffffffffffffffffffffffffff166108fc839081150290604051600060405180830381858888f193505050501580156110f4573d6000803e3d6000fd5b507f93b8ced0c91ddf9862e839966f1db9949aebca6fc64192a2a18be6ee16eb218185600086604051808481526020018361ffff1681526020018267ffffffffffffffff1667ffffffffffffffff168152602001935050505060405180910390a15050505050565b600060029054906101000a900460ff1681565b600460019054906101000a900473ffffffffffffffffffffffffffffffffffffffff1673ffffffffffffffffffffffffffffffffffffffff163373ffffffffffffffffffffffffffffffffffffffff1614611232576040517f08c379a000000000000000000000000000000000000000000000000000000000815260040180806020018281038252601a8152602001807f7472616e736665724d6f6e65795f756e617574686f72697a656400000000000081525060200191505060405180910390fd5b60006006819055508073ffffffffffffffffffffffffffffffffffffffff166108fc6006549081150290604051600060405180830381858888f19350505050158015611282573d6000803e3d6000fd5b5050565b600460019054906101000a900473ffffffffffffffffffffffffffffffffffffffff1681565b600460009054906101000a900460ff1661132e576040517f08c379a000000000000000000000000000000000000000000000000000000000815260040180806020018281038252601c8152602001807f72656769737465724465706f7369745f69734e6f74576f726b696e670000000081525060200191505060405180910390fd5b3461133883611b1c565b106113ab576040517f08c379a000000000000000000000000000000000000000000000000000000000815260040180806020018281038252601e8152602001807f72656769737465724465706f7369745f6e6f74456e6f7567684d6f6e6579000081525060200191505060405180910390fd5b600061012c42816113b857fe5b04905080841015611431576040517f08c379a00000000000000000000000000000000000000000000000000000000081526004018080602001828103825260208152602001807f72656769737465724465706f7369745f696e76616c6964537461727454696d6581525060200191505060405180910390fd5b60006107e0604a5483038161144257fe5b0690506107e081604960009054906101000a900461ffff160161ffff168161146657fe5b06604960006101000a81548161ffff021916908361ffff16021790555081604a819055506000604a548603905060006107e060018784010161ffff16816114a957fe5b0690508161ffff168161ffff1611156115b3575b8061ffff168261ffff1610156115ae5760001515600a8361ffff166107e081106114e357fe5b602091828204019190069054906101000a900460ff1615151461156e576040517f08c379a000000000000000000000000000000000000000000000000000000000815260040180806020018281038252601e8152602001807f72656769737465724465706f7369745f74696d6549734f63637570696564000081525060200191505060405180910390fd5b6001600a8361ffff166107e0811061158257fe5b602091828204019190066101000a81548160ff02191690831515021790555081806001019250506114bd565b61179a565b5b6107e08261ffff1610156116a35760001515600a8361ffff166107e081106115d857fe5b602091828204019190069054906101000a900460ff16151514611663576040517f08c379a000000000000000000000000000000000000000000000000000000000815260040180806020018281038252601e8152602001807f72656769737465724465706f7369745f74696d6549734f63637570696564000081525060200191505060405180910390fd5b6001600a8361ffff166107e0811061167757fe5b602091828204019190066101000a81548160ff02191690831515021790555081806001019250506115b4565b600091505b8061ffff168261ffff1610156117995760001515600a8361ffff166107e081106116ce57fe5b602091828204019190069054906101000a900460ff16151514611759576040517f08c379a000000000000000000000000000000000000000000000000000000000815260040180806020018281038252601e8152602001807f72656769737465724465706f7369745f74696d6549734f63637570696564000081525060200191505060405180910390fd5b6001600a8361ffff166107e0811061176d57fe5b602091828204019190066101000a81548160ff02191690831515021790555081806001019250506116a8565b5b6000809050600060098054905014156118a657600860405180608001604052808a81526020018961ffff1681526020013373ffffffffffffffffffffffffffffffffffffffff16815260200134815250908060018154018082558091505090600182039060005260206000209060030201600090919290919091506000820151816000015560208201518160010160006101000a81548161ffff021916908361ffff16021790555060408201518160010160026101000a81548173ffffffffffffffffffffffffffffffffffffffff021916908373ffffffffffffffffffffffffffffffffffffffff1602179055506060820151816002015550505060016008805490500390506119fd565b600160098054905003905060405180608001604052808981526020018861ffff1681526020013373ffffffffffffffffffffffffffffffffffffffff1681526020013481525060088261ffff16815481106118fd57fe5b90600052602060002090600302016000820151816000015560208201518160010160006101000a81548161ffff021916908361ffff16021790555060408201518160010160026101000a81548173ffffffffffffffffffffffffffffffffffffffff021916908373ffffffffffffffffffffffffffffffffffffffff16021790555060608201518160020155905050600880548061199757fe5b60019003818190600052602060002090600302016000808201600090556001820160006101000a81549061ffff02191690556001820160026101000a81549073ffffffffffffffffffffffffffffffffffffffff02191690556002820160009055505090555b60405180606001604052808261ffff168152602001604a548a0361ffff1681526020018361ffff16815250600760008a815260200190815260200160002060008201518160000160006101000a81548161ffff021916908361ffff16021790555060208201518160000160026101000a81548161ffff021916908361ffff16021790555060408201518160000160046101000a81548161ffff021916908361ffff1602179055509050507ffa68de17b1a354b4bf40b65da7ecbbfa73b10372264d2f5b9e7051dc7bb76ed888888834604051808581526020018461ffff1661ffff1681526020018367ffffffffffffffff1667ffffffffffffffff16815260200182815260200194505050505060405180910390a15050505050505050565b600060018261ffff1610158015611b3957506101208261ffff1611155b611bab576040517f08c379a00000000000000000000000000000000000000000000000000000000081526004018080602001828103825260208152602001807f63616c63756c61746552657175697265644465706f7369745f696e7654696d6581525060200191505060405180910390fd5b456001546005840261ffff1602019050919050565b600460009054906101000a900460ff16611c42576040517f08c379a000000000000000000000000000000000000000000000000000000000815260040180806020018281038252601c8152602001807f72656769737465724465706f7369745f69734e6f74576f726b696e670000000081525060200191505060405180910390fd5b60006007600084815260200190815260200160002060000160009054906101000a900461ffff169050600560009054906101000a900473ffffffffffffffffffffffffffffffffffffffff1673ffffffffffffffffffffffffffffffffffffffff163373ffffffffffffffffffffffffffffffffffffffff1614611d2e576040517f08c379a000000000000000000000000000000000000000000000000000000000815260040180806020018281038252601f8152602001807f636c6f73654f726465725f696e76616c69644f7261636c65416464726573730081525060200191505060405180910390fd5b600060088054905014158015611db35750600073ffffffffffffffffffffffffffffffffffffffff1660088261ffff1681548110611d6857fe5b906000526020600020906003020160010160029054906101000a900473ffffffffffffffffffffffffffffffffffffffff1673ffffffffffffffffffffffffffffffffffffffff1614155b611e25576040517f08c379a000000000000000000000000000000000000000000000000000000000815260040180806020018281038252601c8152602001807f636c6f73654f726465725f6f72646572446f65734e6f7445786973740000000081525060200191505060405180910390fd5b600080905060008361ffff1614611e6a576001548361ffff160260088361ffff1681548110611e5057fe5b906000526020600020906003020160020154039050611e9d565b6064605f60088461ffff1681548110611e7f57fe5b9060005260206000209060030201600201540281611e9957fe5b0490505b8060088361ffff1681548110611eaf57fe5b90600052602060002090600302016002015403600660008282540192505081905550600982908060018154018082558091505090600182039060005260206000209060109182820401919006600202909192909190916101000a81548161ffff021916908361ffff1602179055505060088261ffff1681548110611f2f57fe5b90600052602060002090600302016000808201600090556001820160006101000a81549061ffff02191690556001820160026101000a81549073ffffffffffffffffffffffffffffffffffffffff0219169055600282016000905550506007600085815260200190815260200160002060000160029054906101000a900461ffff16915060006007600086815260200190815260200160002060000160049054906101000a900461ffff1690508061ffff168361ffff161015612042575b8061ffff168361ffff16101561203d576000600a8461ffff166107e0811061201157fe5b602091828204019190066101000a81548160ff0219169083151502179055508280600101935050611fed565b6120e7565b5b6107e08361ffff161015612091576000600a8461ffff166107e0811061206557fe5b602091828204019190066101000a81548160ff0219169083151502179055508280600101935050612043565b600092505b8061ffff168361ffff1610156120e6576000600a8461ffff166107e081106120ba57fe5b602091828204019190066101000a81548160ff0219169083151502179055508280600101935050612096565b5b60076000868152602001908152602001600020600080820160006101000a81549061ffff02191690556000820160026101000a81549061ffff02191690556000820160046101000a81549061ffff0219169055505060088361ffff168154811061214d57fe5b906000526020600020906003020160010160029054906101000a900473ffffffffffffffffffffffffffffffffffffffff1673ffffffffffffffffffffffffffffffffffffffff166108fc839081150290604051600060405180830381858888f193505050501580156121c4573d6000803e3d6000fd5b507f93b8ced0c91ddf9862e839966f1db9949aebca6fc64192a2a18be6ee16eb218185856000604051808481526020018361ffff1661ffff1681526020018267ffffffffffffffff168152602001935050505060405180910390a15050505050565b60015481565b50805460008255600f0160109004906000526020600020908101906122519190612293565b50565b50806107e0601f0160209004019061226c9190612293565b50565b508054600082556003029060005260206000209081019061229091906122b8565b50565b6122b591905b808211156122b1576000816000905550600101612299565b5090565b90565b61232091905b8082111561231c576000808201600090556001820160006101000a81549061ffff02191690556001820160026101000a81549073ffffffffffffffffffffffffffffffffffffffff02191690556002820160009055506003016122be565b5090565b9056fe646573747275637454686973436f6e74726163745f756e617574686f72697a6564a265627a7a723158204acf18c20ce63a3373f26a94d161c2a8ff14fa5ab68658b983646a9a79d0c08364736f6c63430005100032",
  "source": "pragma solidity ^0.5.8;\n\n\ncontract Charger {\n    // dummy values, not for release version\n    enum TypeOfCable {TYPE1, TYPE2, TYPE3}\n\n    struct DepositInfo {\n        // time is measured in seconds since unix epoch\n        uint startTime;\n        uint16 durationInFiveMinutes;\n        address payable user;\n        uint receivedMoney;\n    }\n\n    struct InternalIndexInfo {\n        uint16 listIndex;\n        uint16 reservationsStart;\n        uint16 reservationsEnd;\n    }\n\n    event DepositWasRegistered(\n        uint startTime,\n        uint16 durationInFiveMinutes,\n        uint64 secretSessionId,\n        uint receivedMoney\n    );\n\n    event DepositWasClosed(\n        uint startTime,\n        uint16 durationInMinutes,\n        uint64 secretSessionId\n    );\n\n    event ChangeWorkingStateCharger(\n        bool wasWorking,\n        bool isWorking\n    );\n\n    uint16 public power;\n    TypeOfCable public cableType;\n    uint public tariff;                                             // tariff is represented in wei per minute\n    string public latitude;                                         // e.g. 55.423791\n    string public longitude;                                        // e.g. 37.518223\n    bool public isWorking;\n    address payable public ownerAddress;\n\n    address private oracleAddress;\n    uint private freeMoney;\n\n    mapping(uint => InternalIndexInfo) private depositsIndexes;     // startTime => index in depositsList array\n    DepositInfo[] private depositsList;\n    uint16[] private freeIndexes;\n    bool[2016] private reservations;                                // 7 days span is available for reservations.\n                                                                    // 7 * 24 * 12 = 2016\n    uint16 private rootIndex;\n    uint private rootTime;                                          // in 5 minutes\n\n\n    constructor(uint16 _power, TypeOfCable _cableType, uint _tariff,\n                string memory _latitude, string memory _longitude,\n                address _oracleAddress, address payable _ownerAddress) public {\n        power = _power;\n        cableType = _cableType;\n        tariff = _tariff;\n        latitude = _latitude;\n        longitude = _longitude;\n        isWorking = true;\n        ownerAddress = _ownerAddress;\n\n        oracleAddress = _oracleAddress;\n        freeMoney = 0;\n\n        rootIndex = 0;\n        rootTime = block.timestamp / 300;\n    }\n\n    function getInfo()\n        public\n        view\n        returns(uint16, TypeOfCable, uint, string memory, string memory, bool)\n    {\n        return (power, cableType, tariff, latitude, longitude, isWorking);\n    }\n\n    function registerDeposit(uint _startTime,\n                             uint16 _durationInFiveMinutes,\n                             uint64 _secretSessionId)\n        external\n        payable\n    {\n        require(isWorking, \"registerDeposit_isNotWorking\");\n        require(calculateRequiredDeposit(_durationInFiveMinutes) < msg.value,\n                \"registerDeposit_notEnoughMoney\");\n\n        // firstly we update root index and time\n        uint currentTime = block.timestamp / 300;\n        require(_startTime >= currentTime, \"registerDeposit_invalidStartTime\");\n        // TODO: we might want to automatically detect erroneous contract state, better to do it here\n        uint16 offset = uint16((currentTime - rootTime) % 2016);\n        rootIndex = (rootIndex + offset) % 2016;\n        rootTime = currentTime;\n\n        // then we reserve the time and revert operation if time is occupied\n        uint16 i = uint16(_startTime - rootTime);\n        uint16 endIndex = (i + _durationInFiveMinutes + 1) % 2016;\n        if (endIndex > i) {\n            for (; i < endIndex; i++) {\n                require(reservations[i] == false, \"registerDeposit_timeIsOccupied\");\n                reservations[i] = true;\n            }\n        } else {\n            for (; i < 2016; i++) {\n                require(reservations[i] == false, \"registerDeposit_timeIsOccupied\");\n                reservations[i] = true;\n            }\n            for (i = 0; i < endIndex; i++) {\n                require(reservations[i] == false, \"registerDeposit_timeIsOccupied\");\n                reservations[i] = true;\n            }\n        }\n\n        // finally we add the deposit info in the internal structures\n        uint16 depositIndex = 0;\n        if (freeIndexes.length == 0) {\n            depositsList.push(DepositInfo(\n                _startTime,\n                _durationInFiveMinutes,\n                msg.sender,\n                msg.value\n            ));\n            depositIndex = uint16(depositsList.length - 1);\n        } else {\n            depositIndex = uint16(freeIndexes.length - 1);\n            depositsList[depositIndex] = (DepositInfo(\n                _startTime,\n                _durationInFiveMinutes,\n                msg.sender,\n                msg.value\n            ));\n            depositsList.pop();\n        }\n        depositsIndexes[_startTime] = InternalIndexInfo(\n            depositIndex,\n            uint16(_startTime - rootTime),\n            endIndex\n        );\n\n        emit DepositWasRegistered(_startTime, _durationInFiveMinutes, _secretSessionId, msg.value);\n    }\n\n    // public is used because the method can be called internally\n    // assuming that charging time is between 5 minutes and one day\n    function calculateRequiredDeposit(uint16 _durationInFiveMinutes)\n        public\n        view\n        returns(uint)\n    {\n        require(_durationInFiveMinutes >= 1 && _durationInFiveMinutes <= 288,\n                \"calculateRequiredDeposit_invTime\");\n        return _durationInFiveMinutes * 5 * tariff + block.gaslimit;\n    }\n\n    function cancelOrder(uint _startTime, uint64 _secretSessionId)\n        external\n        payable\n    {\n        require(isWorking, \"registerDeposit_isNotWorking\");\n        uint16 index = depositsIndexes[_startTime].listIndex;\n        require(depositsList.length != 0 && depositsList[index].user == msg.sender,\n                \"cancelOrder_orderDoesNotExist\");\n\n        // calculate refund\n        uint refund = depositsList[index].receivedMoney * 95 / 100;\n        freeMoney += depositsList[index].receivedMoney - refund;\n\n        // delete order from internal structures\n        freeIndexes.push(index);\n        delete depositsList[index];\n        index = depositsIndexes[_startTime].reservationsStart;\n        uint16 endIndex = depositsIndexes[_startTime].reservationsEnd;\n        if (index < endIndex) {\n            for (; index < endIndex; index++) {\n                reservations[index] = false;\n            }\n        } else {\n            for (; index < 2016; index++) {\n                reservations[index] = false;\n            }\n            for (index = 0; index < endIndex; index++) {\n                reservations[index] = false;\n            }\n        }\n        delete depositsIndexes[_startTime];\n\n        // refund in the end to prevent from race conditions\n        msg.sender.transfer(refund);\n        emit DepositWasClosed(_startTime, 0, _secretSessionId);\n    }\n\n    /**\n     * Method must be triggered by the physical charger controller aka Oracle.\n     * Oracle must return the time actualy used by the user.\n     * @param _startTime            start time of the order to close\n     * @param _timeInMinutes        time spend by user, measured by Oracle\n     */\n    function closeOrder(uint _startTime, uint16 _timeInMinutes)\n        external\n        payable\n    {\n        // TODO: there are options for outdated orders: automatic refund triggered by Oracle\n        // with a call to closeOrder(x, _timeInMinutes: 0)\n        // or explicit refund after request to a dedicated method by the user.\n        // Yet we use closeOrder().\n        require(isWorking, \"registerDeposit_isNotWorking\");\n        uint16 index = depositsIndexes[_startTime].listIndex;\n        require(msg.sender == oracleAddress, \"closeOrder_invalidOracleAddress\");\n        require(depositsList.length != 0 && depositsList[index].user != address(0),\n                \"closeOrder_orderDoesNotExist\");\n\n        // refund calculation\n        uint refund = 0;\n        if (_timeInMinutes != 0) {\n            refund = depositsList[index].receivedMoney - _timeInMinutes * tariff;\n        } else {\n            refund = depositsList[index].receivedMoney * 95 / 100;\n        }\n        freeMoney += depositsList[index].receivedMoney - refund;\n\n        // delete order from internal structures\n        freeIndexes.push(index);\n        delete depositsList[index];\n        index = depositsIndexes[_startTime].reservationsStart;\n        uint16 endIndex = depositsIndexes[_startTime].reservationsEnd;\n        if (index < endIndex) {\n            for (; index < endIndex; index++) {\n                reservations[index] = false;\n            }\n        } else {\n            for (; index < 2016; index++) {\n                reservations[index] = false;\n            }\n            for (index = 0; index < endIndex; index++) {\n                reservations[index] = false;\n            }\n        }\n        delete depositsIndexes[_startTime];\n\n        // refund in the end to prevent from race conditions\n        depositsList[index].user.transfer(refund);\n        emit DepositWasClosed(_startTime, _timeInMinutes, 0);\n    }\n\n    function setIsWorking(bool _value) external {\n        require(msg.sender == ownerAddress, \"setIsWorking_unauthorized\");\n        bool wasWorking = isWorking;\n        isWorking = _value;\n        if (wasWorking && !isWorking) {\n            delete freeIndexes;\n            delete reservations;\n\n            uint16 i = 0;\n            for (; i < depositsList.length; i++) {\n                depositsList[i].user.transfer(depositsList[i].receivedMoney);\n            }\n            delete depositsList;\n        }\n\n        emit ChangeWorkingStateCharger(wasWorking, _value);\n    }\n\n    function transferMoney(address payable receiver)\n        external\n        payable\n    {\n        require(msg.sender == ownerAddress, \"transferMoney_unauthorized\");\n        freeMoney = 0;\n        receiver.transfer(freeMoney);\n    }\n\n    function destructThisContract() external {\n        require(msg.sender == ownerAddress, \"destructThisContract_unauthorized\");\n        selfdestruct(ownerAddress);\n    }\n}\n",
  "sourcePath": "/home/snumbrikvolgo/ChargerProject/contracts/Charger.sol",
  "compiler": {
    "name": "solc",
    "version": "0.5.16+commit.9c3226ce.Emscripten.clang"
  },
  "schemaVersion": "3.4.3",
  "updatedAt": "2021-11-26T17:07:41.320Z",
  "devdoc": {
    "methods": {
      "closeOrder(uint256,uint16)": {
        "params": {
          "_startTime": "start time of the order to close",
          "_timeInMinutes": "time spend by user, measured by Oracle"
        }
      }
    }
  },
  "userdoc": {
    "methods": {
      "closeOrder(uint256,uint16)": {
        "notice": "Method must be triggered by the physical charger controller aka Oracle. Oracle must return the time actualy used by the user."
      }
    }
  }
}