{
  "contractName": "ChargersListing",
  "abi": [
    {
      "constant": true,
      "inputs": [
        {
          "internalType": "uint64",
          "name": "",
          "type": "uint64"
        }
      ],
      "name": "chargers",
      "outputs": [
        {
          "internalType": "address",
          "name": "",
          "type": "address"
        }
      ],
      "payable": false,
      "stateMutability": "view",
      "type": "function"
    },
    {
      "constant": true,
      "inputs": [
        {
          "internalType": "uint64",
          "name": "id",
          "type": "uint64"
        }
      ],
      "name": "getChargerInfo",
      "outputs": [
        {
          "internalType": "uint16",
          "name": "",
          "type": "uint16"
        },
        {
          "internalType": "enum Charger.TypeOfCable",
          "name": "",
          "type": "uint8"
        },
        {
          "internalType": "uint256",
          "name": "",
          "type": "uint256"
        },
        {
          "internalType": "string",
          "name": "",
          "type": "string"
        },
        {
          "internalType": "string",
          "name": "",
          "type": "string"
        },
        {
          "internalType": "bool",
          "name": "",
          "type": "bool"
        }
      ],
      "payable": false,
      "stateMutability": "view",
      "type": "function"
    },
    {
      "constant": true,
      "inputs": [
        {
          "internalType": "uint64",
          "name": "id",
          "type": "uint64"
        }
      ],
      "name": "getCharger",
      "outputs": [
        {
          "internalType": "contract Charger",
          "name": "",
          "type": "address"
        }
      ],
      "payable": false,
      "stateMutability": "view",
      "type": "function"
    },
    {
      "constant": false,
      "inputs": [
        {
          "internalType": "uint64",
          "name": "id",
          "type": "uint64"
        },
        {
          "internalType": "uint256",
          "name": "_startTime",
          "type": "uint256"
        },
        {
          "internalType": "uint16",
          "name": "_durationInFiveMinutes",
          "type": "uint16"
        },
        {
          "internalType": "uint64",
          "name": "_secretSessionId",
          "type": "uint64"
        }
      ],
      "name": "getChargerRegisterDeposit",
      "outputs": [],
      "payable": false,
      "stateMutability": "nonpayable",
      "type": "function"
    },
    {
      "constant": true,
      "inputs": [],
      "name": "getAllChargersIndexes",
      "outputs": [
        {
          "internalType": "uint64[4]",
          "name": "",
          "type": "uint64[4]"
        }
      ],
      "payable": false,
      "stateMutability": "view",
      "type": "function"
    },
    {
      "constant": false,
      "inputs": [
        {
          "internalType": "uint64",
          "name": "id",
          "type": "uint64"
        },
        {
          "internalType": "uint16",
          "name": "_power",
          "type": "uint16"
        },
        {
          "internalType": "enum Charger.TypeOfCable",
          "name": "_cableType",
          "type": "uint8"
        },
        {
          "internalType": "uint256",
          "name": "_tariff",
          "type": "uint256"
        },
        {
          "internalType": "string",
          "name": "_latitude",
          "type": "string"
        },
        {
          "internalType": "string",
          "name": "_longitude",
          "type": "string"
        },
        {
          "internalType": "address",
          "name": "oracleAddress",
          "type": "address"
        }
      ],
      "name": "addCharger",
      "outputs": [],
      "payable": false,
      "stateMutability": "nonpayable",
      "type": "function"
    },
    {
      "constant": false,
      "inputs": [
        {
          "internalType": "uint64",
          "name": "id",
          "type": "uint64"
        }
      ],
      "name": "deleteCharger",
      "outputs": [],
      "payable": false,
      "stateMutability": "nonpayable",
      "type": "function"
    }
  ],
  "bytecode": "0x608060405234801561001057600080fd5b506138bb806100206000396000f3fe60806040523480156200001157600080fd5b5060043610620000885760003560e01c80638ce0757d11620000635780638ce0757d146200018d5780638e3ff1bf14620002bd578063a6e9a4751462000338578063b6977b8a14620004955762000088565b806338f0ead8146200008d5780635353f339146200010857806370f6f7c21462000152575b600080fd5b620000c660048036036020811015620000a557600080fd5b81019080803567ffffffffffffffff169060200190929190505050620004fc565b604051808273ffffffffffffffffffffffffffffffffffffffff1673ffffffffffffffffffffffffffffffffffffffff16815260200191505060405180910390f35b620001126200052f565b6040518082600460200280838360005b838110156200013f57808201518184015260208101905062000122565b5050505090500191505060405180910390f35b6200018b600480360360208110156200016a57600080fd5b81019080803567ffffffffffffffff169060200190929190505050620005b2565b005b620002bb600480360360e0811015620001a557600080fd5b81019080803567ffffffffffffffff169060200190929190803561ffff169060200190929190803560ff1690602001909291908035906020019092919080359060200190640100000000811115620001fc57600080fd5b8201836020820111156200020f57600080fd5b803590602001918460018302840111640100000000831117156200023257600080fd5b9091929391929390803590602001906401000000008111156200025457600080fd5b8201836020820111156200026757600080fd5b803590602001918460018302840111640100000000831117156200028a57600080fd5b9091929391929390803573ffffffffffffffffffffffffffffffffffffffff16906020019092919050505062000859565b005b620002f660048036036020811015620002d557600080fd5b81019080803567ffffffffffffffff16906020019092919050505062000a40565b604051808273ffffffffffffffffffffffffffffffffffffffff1673ffffffffffffffffffffffffffffffffffffffff16815260200191505060405180910390f35b62000371600480360360208110156200035057600080fd5b81019080803567ffffffffffffffff16906020019092919050505062000b7f565b604051808761ffff1661ffff1681526020018660028111156200039057fe5b60ff168152602001858152602001806020018060200184151515158152602001838103835286818151815260200191508051906020019080838360005b83811015620003ea578082015181840152602081019050620003cd565b50505050905090810190601f168015620004185780820380516001836020036101000a031916815260200191505b50838103825285818151815260200191508051906020019080838360005b838110156200045357808201518184015260208101905062000436565b50505050905090810190601f168015620004815780820380516001836020036101000a031916815260200191505b509850505050505050505060405180910390f35b620004fa60048036036080811015620004ad57600080fd5b81019080803567ffffffffffffffff16906020019092919080359060200190929190803561ffff169060200190929190803567ffffffffffffffff16906020019092919050505062000f03565b005b60006020528060005260406000206000915054906101000a900473ffffffffffffffffffffffffffffffffffffffff1681565b62000539620010d8565b6001600480602002604051908101604052809291908260048015620005a8576020028201916000905b82829054906101000a900467ffffffffffffffff1667ffffffffffffffff1681526020019060080190602082600701049283019260010382029150808411620005625790505b5050505050905090565b600073ffffffffffffffffffffffffffffffffffffffff166000808367ffffffffffffffff1667ffffffffffffffff16815260200190815260200160002060009054906101000a900473ffffffffffffffffffffffffffffffffffffffff1673ffffffffffffffffffffffffffffffffffffffff1614156200069c576040517f08c379a00000000000000000000000000000000000000000000000000000000081526004018080602001828103825260178152602001807f616464436861726765725f646f65734e6f74457869737400000000000000000081525060200191505060405180910390fd5b60008060008367ffffffffffffffff1667ffffffffffffffff16815260200190815260200160002060009054906101000a900473ffffffffffffffffffffffffffffffffffffffff1690503373ffffffffffffffffffffffffffffffffffffffff168173ffffffffffffffffffffffffffffffffffffffff16638f84aa096040518163ffffffff1660e01b815260040160206040518083038186803b1580156200074557600080fd5b505afa1580156200075a573d6000803e3d6000fd5b505050506040513d60208110156200077157600080fd5b810190808051906020019092919050505073ffffffffffffffffffffffffffffffffffffffff16146200080c576040517f08c379a00000000000000000000000000000000000000000000000000000000081526004018080602001828103825260178152602001807f616464436861726765725f756e617574686f72697a656400000000000000000081525060200191505060405180910390fd5b6000808367ffffffffffffffff1667ffffffffffffffff16815260200190815260200160002060006101000a81549073ffffffffffffffffffffffffffffffffffffffff02191690555050565b8787878787878787336040516200087090620010fa565b808a61ffff1661ffff1681526020018960028111156200088c57fe5b60ff16815260200188815260200180602001806020018573ffffffffffffffffffffffffffffffffffffffff1673ffffffffffffffffffffffffffffffffffffffff1681526020018473ffffffffffffffffffffffffffffffffffffffff1673ffffffffffffffffffffffffffffffffffffffff1681526020018381038352898982818152602001925080828437600081840152601f19601f8201169050808301925050508381038252878782818152602001925080828437600081840152601f19601f8201169050808301925050509b505050505050505050505050604051809103906000f08015801562000986573d6000803e3d6000fd5b506000808b67ffffffffffffffff1667ffffffffffffffff16815260200190815260200160002060006101000a81548173ffffffffffffffffffffffffffffffffffffffff021916908373ffffffffffffffffffffffffffffffffffffffff1602179055508860018a67ffffffffffffffff166004811062000a0457fe5b600491828204019190066008026101000a81548167ffffffffffffffff021916908367ffffffffffffffff160217905550505050505050505050565b60008073ffffffffffffffffffffffffffffffffffffffff166000808467ffffffffffffffff1667ffffffffffffffff16815260200190815260200160002060009054906101000a900473ffffffffffffffffffffffffffffffffffffffff1673ffffffffffffffffffffffffffffffffffffffff16141562000b2b576040517f08c379a000000000000000000000000000000000000000000000000000000000815260040180806020018281038252601a8152602001807f676574436861726765725f69734e6f745265676973746572656400000000000081525060200191505060405180910390fd5b60008060008467ffffffffffffffff1667ffffffffffffffff16815260200190815260200160002060009054906101000a900473ffffffffffffffffffffffffffffffffffffffff16905080915050919050565b600080600060608060008073ffffffffffffffffffffffffffffffffffffffff166000808967ffffffffffffffff1667ffffffffffffffff16815260200190815260200160002060009054906101000a900473ffffffffffffffffffffffffffffffffffffffff1673ffffffffffffffffffffffffffffffffffffffff16141562000c72576040517f08c379a000000000000000000000000000000000000000000000000000000000815260040180806020018281038252601a8152602001807f676574436861726765725f69734e6f745265676973746572656400000000000081525060200191505060405180910390fd5b60008060008967ffffffffffffffff1667ffffffffffffffff16815260200190815260200160002060009054906101000a900473ffffffffffffffffffffffffffffffffffffffff1690508073ffffffffffffffffffffffffffffffffffffffff16635a9b0b896040518163ffffffff1660e01b815260040160006040518083038186803b15801562000d0457600080fd5b505afa15801562000d19573d6000803e3d6000fd5b505050506040513d6000823e3d601f19601f8201168201806040525060c081101562000d4457600080fd5b810190808051906020019092919080519060200190929190805190602001909291908051604051939291908464010000000082111562000d8357600080fd5b8382019150602082018581111562000d9a57600080fd5b825186600182028301116401000000008211171562000db857600080fd5b8083526020830192505050908051906020019080838360005b8381101562000dee57808201518184015260208101905062000dd1565b50505050905090810190601f16801562000e1c5780820380516001836020036101000a031916815260200191505b506040526020018051604051939291908464010000000082111562000e4057600080fd5b8382019150602082018581111562000e5757600080fd5b825186600182028301116401000000008211171562000e7557600080fd5b8083526020830192505050908051906020019080838360005b8381101562000eab57808201518184015260208101905062000e8e565b50505050905090810190601f16801562000ed95780820380516001836020036101000a031916815260200191505b50604052602001805190602001909291905050509650965096509650965096505091939550919395565b600073ffffffffffffffffffffffffffffffffffffffff166000808667ffffffffffffffff1667ffffffffffffffff16815260200190815260200160002060009054906101000a900473ffffffffffffffffffffffffffffffffffffffff1673ffffffffffffffffffffffffffffffffffffffff16141562000fed576040517f08c379a000000000000000000000000000000000000000000000000000000000815260040180806020018281038252601a8152602001807f676574436861726765725f69734e6f745265676973746572656400000000000081525060200191505060405180910390fd5b60008060008667ffffffffffffffff1667ffffffffffffffff16815260200190815260200160002060009054906101000a900473ffffffffffffffffffffffffffffffffffffffff1690508073ffffffffffffffffffffffffffffffffffffffff166398d1edf98585856040518463ffffffff1660e01b8152600401808481526020018361ffff1661ffff1681526020018267ffffffffffffffff1667ffffffffffffffff1681526020019350505050600060405180830381600087803b158015620010b857600080fd5b505af1158015620010cd573d6000803e3d6000fd5b505050505050505050565b6040518060800160405280600490602082028038833980820191505090505090565b61277e80620011098339019056fe60806040523480156200001157600080fd5b506040516200277e3803806200277e833981810160405260e08110156200003757600080fd5b81019080805190602001909291908051906020019092919080519060200190929190805160405193929190846401000000008211156200007657600080fd5b838201915060208201858111156200008d57600080fd5b8251866001820283011164010000000082111715620000ab57600080fd5b8083526020830192505050908051906020019080838360005b83811015620000e1578082015181840152602081019050620000c4565b50505050905090810190601f1680156200010f5780820380516001836020036101000a031916815260200191505b50604052602001805160405193929190846401000000008211156200013357600080fd5b838201915060208201858111156200014a57600080fd5b82518660018202830111640100000000821117156200016857600080fd5b8083526020830192505050908051906020019080838360005b838110156200019e57808201518184015260208101905062000181565b50505050905090810190601f168015620001cc5780820380516001836020036101000a031916815260200191505b506040526020018051906020019092919080519060200190929190505050866000806101000a81548161ffff021916908361ffff16021790555085600060026101000a81548160ff021916908360028111156200022557fe5b02179055508460018190555083600290805190602001906200024992919062000346565b5082600390805190602001906200026292919062000346565b506001600460006101000a81548160ff02191690831515021790555080600460016101000a81548173ffffffffffffffffffffffffffffffffffffffff021916908373ffffffffffffffffffffffffffffffffffffffff16021790555081600560006101000a81548173ffffffffffffffffffffffffffffffffffffffff021916908373ffffffffffffffffffffffffffffffffffffffff16021790555060006006819055506000604960006101000a81548161ffff021916908361ffff16021790555061012c42816200033257fe5b04604a8190555050505050505050620003f5565b828054600181600116156101000203166002900490600052602060002090601f016020900481019282601f106200038957805160ff1916838001178555620003ba565b82800160010185558215620003ba579182015b82811115620003b95782518255916020019190600101906200039c565b5b509050620003c99190620003cd565b5090565b620003f291905b80821115620003ee576000816000905550600101620003d4565b5090565b90565b61237980620004056000396000f3fe6080604052600436106100e85760003560e01c806378e6aee51161008a57806398d1edf91161005957806398d1edf91461050b578063996e862b1461055b5780639f69ad54146105ae5780639f908a20146105ea576100e8565b806378e6aee5146103f55780637e18dc9b1461043757806386ce9835146104705780638f84aa09146104b4576100e8565b80634a4d59fa116100c65780634a4d59fa146101705780634fd7d76a146101a3578063589af69c146102335780635a9b0b89146102c3576100e8565b806302349968146100ed578063099aea0a1461012a5780633eeaa4ea14610159575b600080fd5b3480156100f957600080fd5b506101286004803603602081101561011057600080fd5b81019080803515159060200190929190505050610615565b005b34801561013657600080fd5b5061013f61086b565b604051808215151515815260200191505060405180910390f35b34801561016557600080fd5b5061016e61087e565b005b34801561017c57600080fd5b5061018561095f565b604051808261ffff1661ffff16815260200191505060405180910390f35b3480156101af57600080fd5b506101b8610972565b6040518080602001828103825283818151815260200191508051906020019080838360005b838110156101f85780820151818401526020810190506101dd565b50505050905090810190601f1680156102255780820380516001836020036101000a031916815260200191505b509250505060405180910390f35b34801561023f57600080fd5b50610248610a10565b6040518080602001828103825283818151815260200191508051906020019080838360005b8381101561028857808201518184015260208101905061026d565b50505050905090810190601f1680156102b55780820380516001836020036101000a031916815260200191505b509250505060405180910390f35b3480156102cf57600080fd5b506102d8610aae565b604051808761ffff1661ffff1681526020018660028111156102f657fe5b60ff168152602001858152602001806020018060200184151515158152602001838103835286818151815260200191508051906020019080838360005b8381101561034e578082015181840152602081019050610333565b50505050905090810190601f16801561037b5780820380516001836020036101000a031916815260200191505b50838103825285818151815260200191508051906020019080838360005b838110156103b4578082015181840152602081019050610399565b50505050905090810190601f1680156103e15780820380516001836020036101000a031916815260200191505b509850505050505050505060405180910390f35b6104356004803603604081101561040b57600080fd5b8101908080359060200190929190803567ffffffffffffffff169060200190929190505050610c3b565b005b34801561044357600080fd5b5061044c61115c565b6040518082600281111561045c57fe5b60ff16815260200191505060405180910390f35b6104b26004803603602081101561048657600080fd5b81019080803573ffffffffffffffffffffffffffffffffffffffff16906020019092919050505061116f565b005b3480156104c057600080fd5b506104c9611286565b604051808273ffffffffffffffffffffffffffffffffffffffff1673ffffffffffffffffffffffffffffffffffffffff16815260200191505060405180910390f35b6105596004803603606081101561052157600080fd5b8101908080359060200190929190803561ffff169060200190929190803567ffffffffffffffff1690602001909291905050506112ac565b005b34801561056757600080fd5b506105986004803603602081101561057e57600080fd5b81019080803561ffff169060200190929190505050611b1c565b6040518082815260200191505060405180910390f35b6105e8600480360360408110156105c457600080fd5b8101908080359060200190929190803561ffff169060200190929190505050611bc0565b005b3480156105f657600080fd5b506105ff612226565b6040518082815260200191505060405180910390f35b600460019054906101000a900473ffffffffffffffffffffffffffffffffffffffff1673ffffffffffffffffffffffffffffffffffffffff163373ffffffffffffffffffffffffffffffffffffffff16146106d8576040517f08c379a00000000000000000000000000000000000000000000000000000000081526004018080602001828103825260198152602001807f7365744973576f726b696e675f756e617574686f72697a65640000000000000081525060200191505060405180910390fd5b6000600460009054906101000a900460ff16905081600460006101000a81548160ff0219169083151502179055508080156107205750600460009054906101000a900460ff16155b156108205760096000610733919061222c565b600a60006107419190612254565b60008090505b6008805490508161ffff1610156108105760088161ffff168154811061076957fe5b906000526020600020906003020160010160029054906101000a900473ffffffffffffffffffffffffffffffffffffffff1673ffffffffffffffffffffffffffffffffffffffff166108fc60088361ffff16815481106107c557fe5b9060005260206000209060030201600201549081150290604051600060405180830381858888f19350505050158015610802573d6000803e3d6000fd5b508080600101915050610747565b6008600061081e919061226f565b505b7fa488f15b90291ec903659b47b5702c8148654e0f334d9bde8d785adfb7c14ea181836040518083151515158152602001821515151581526020019250505060405180910390a15050565b600460009054906101000a900460ff1681565b600460019054906101000a900473ffffffffffffffffffffffffffffffffffffffff1673ffffffffffffffffffffffffffffffffffffffff163373ffffffffffffffffffffffffffffffffffffffff1614610924576040517f08c379a00000000000000000000000000000000000000000000000000000000081526004018080602001828103825260218152602001806123246021913960400191505060405180910390fd5b600460019054906101000a900473ffffffffffffffffffffffffffffffffffffffff1673ffffffffffffffffffffffffffffffffffffffff16ff5b6000809054906101000a900461ffff1681565b60028054600181600116156101000203166002900480601f016020809104026020016040519081016040528092919081815260200182805460018160011615610100020316600290048015610a085780601f106109dd57610100808354040283529160200191610a08565b820191906000526020600020905b8154815290600101906020018083116109eb57829003601f168201915b505050505081565b60038054600181600116156101000203166002900480601f016020809104026020016040519081016040528092919081815260200182805460018160011615610100020316600290048015610aa65780601f10610a7b57610100808354040283529160200191610aa6565b820191906000526020600020905b815481529060010190602001808311610a8957829003601f168201915b505050505081565b600080600060608060008060009054906101000a900461ffff16600060029054906101000a900460ff1660015460026003600460009054906101000a900460ff16828054600181600116156101000203166002900480601f016020809104026020016040519081016040528092919081815260200182805460018160011615610100020316600290048015610b845780601f10610b5957610100808354040283529160200191610b84565b820191906000526020600020905b815481529060010190602001808311610b6757829003601f168201915b50505050509250818054600181600116156101000203166002900480601f016020809104026020016040519081016040528092919081815260200182805460018160011615610100020316600290048015610c205780601f10610bf557610100808354040283529160200191610c20565b820191906000526020600020905b815481529060010190602001808311610c0357829003601f168201915b50505050509150955095509550955095509550909192939495565b600460009054906101000a900460ff16610cbd576040517f08c379a000000000000000000000000000000000000000000000000000000000815260040180806020018281038252601c8152602001807f72656769737465724465706f7369745f69734e6f74576f726b696e670000000081525060200191505060405180910390fd5b60006007600084815260200190815260200160002060000160009054906101000a900461ffff169050600060088054905014158015610d6957503373ffffffffffffffffffffffffffffffffffffffff1660088261ffff1681548110610d1f57fe5b906000526020600020906003020160010160029054906101000a900473ffffffffffffffffffffffffffffffffffffffff1673ffffffffffffffffffffffffffffffffffffffff16145b610ddb576040517f08c379a000000000000000000000000000000000000000000000000000000000815260040180806020018281038252601d8152602001807f63616e63656c4f726465725f6f72646572446f65734e6f74457869737400000081525060200191505060405180910390fd5b60006064605f60088461ffff1681548110610df257fe5b9060005260206000209060030201600201540281610e0c57fe5b0490508060088361ffff1681548110610e2157fe5b90600052602060002090600302016002015403600660008282540192505081905550600982908060018154018082558091505090600182039060005260206000209060109182820401919006600202909192909190916101000a81548161ffff021916908361ffff1602179055505060088261ffff1681548110610ea157fe5b90600052602060002090600302016000808201600090556001820160006101000a81549061ffff02191690556001820160026101000a81549073ffffffffffffffffffffffffffffffffffffffff0219169055600282016000905550506007600085815260200190815260200160002060000160029054906101000a900461ffff16915060006007600086815260200190815260200160002060000160049054906101000a900461ffff1690508061ffff168361ffff161015610fb4575b8061ffff168361ffff161015610faf576000600a8461ffff166107e08110610f8357fe5b602091828204019190066101000a81548160ff0219169083151502179055508280600101935050610f5f565b611059565b5b6107e08361ffff161015611003576000600a8461ffff166107e08110610fd757fe5b602091828204019190066101000a81548160ff0219169083151502179055508280600101935050610fb5565b600092505b8061ffff168361ffff161015611058576000600a8461ffff166107e0811061102c57fe5b602091828204019190066101000a81548160ff0219169083151502179055508280600101935050611008565b5b60076000868152602001908152602001600020600080820160006101000a81549061ffff02191690556000820160026101000a81549061ffff02191690556000820160046101000a81549061ffff021916905550503373ffffffffffffffffffffffffffffffffffffffff166108fc839081150290604051600060405180830381858888f193505050501580156110f4573d6000803e3d6000fd5b507f93b8ced0c91ddf9862e839966f1db9949aebca6fc64192a2a18be6ee16eb218185600086604051808481526020018361ffff1681526020018267ffffffffffffffff1667ffffffffffffffff168152602001935050505060405180910390a15050505050565b600060029054906101000a900460ff1681565b600460019054906101000a900473ffffffffffffffffffffffffffffffffffffffff1673ffffffffffffffffffffffffffffffffffffffff163373ffffffffffffffffffffffffffffffffffffffff1614611232576040517f08c379a000000000000000000000000000000000000000000000000000000000815260040180806020018281038252601a8152602001807f7472616e736665724d6f6e65795f756e617574686f72697a656400000000000081525060200191505060405180910390fd5b60006006819055508073ffffffffffffffffffffffffffffffffffffffff166108fc6006549081150290604051600060405180830381858888f19350505050158015611282573d6000803e3d6000fd5b5050565b600460019054906101000a900473ffffffffffffffffffffffffffffffffffffffff1681565b600460009054906101000a900460ff1661132e576040517f08c379a000000000000000000000000000000000000000000000000000000000815260040180806020018281038252601c8152602001807f72656769737465724465706f7369745f69734e6f74576f726b696e670000000081525060200191505060405180910390fd5b3461133883611b1c565b106113ab576040517f08c379a000000000000000000000000000000000000000000000000000000000815260040180806020018281038252601e8152602001807f72656769737465724465706f7369745f6e6f74456e6f7567684d6f6e6579000081525060200191505060405180910390fd5b600061012c42816113b857fe5b04905080841015611431576040517f08c379a00000000000000000000000000000000000000000000000000000000081526004018080602001828103825260208152602001807f72656769737465724465706f7369745f696e76616c6964537461727454696d6581525060200191505060405180910390fd5b60006107e0604a5483038161144257fe5b0690506107e081604960009054906101000a900461ffff160161ffff168161146657fe5b06604960006101000a81548161ffff021916908361ffff16021790555081604a819055506000604a548603905060006107e060018784010161ffff16816114a957fe5b0690508161ffff168161ffff1611156115b3575b8061ffff168261ffff1610156115ae5760001515600a8361ffff166107e081106114e357fe5b602091828204019190069054906101000a900460ff1615151461156e576040517f08c379a000000000000000000000000000000000000000000000000000000000815260040180806020018281038252601e8152602001807f72656769737465724465706f7369745f74696d6549734f63637570696564000081525060200191505060405180910390fd5b6001600a8361ffff166107e0811061158257fe5b602091828204019190066101000a81548160ff02191690831515021790555081806001019250506114bd565b61179a565b5b6107e08261ffff1610156116a35760001515600a8361ffff166107e081106115d857fe5b602091828204019190069054906101000a900460ff16151514611663576040517f08c379a000000000000000000000000000000000000000000000000000000000815260040180806020018281038252601e8152602001807f72656769737465724465706f7369745f74696d6549734f63637570696564000081525060200191505060405180910390fd5b6001600a8361ffff166107e0811061167757fe5b602091828204019190066101000a81548160ff02191690831515021790555081806001019250506115b4565b600091505b8061ffff168261ffff1610156117995760001515600a8361ffff166107e081106116ce57fe5b602091828204019190069054906101000a900460ff16151514611759576040517f08c379a000000000000000000000000000000000000000000000000000000000815260040180806020018281038252601e8152602001807f72656769737465724465706f7369745f74696d6549734f63637570696564000081525060200191505060405180910390fd5b6001600a8361ffff166107e0811061176d57fe5b602091828204019190066101000a81548160ff02191690831515021790555081806001019250506116a8565b5b6000809050600060098054905014156118a657600860405180608001604052808a81526020018961ffff1681526020013373ffffffffffffffffffffffffffffffffffffffff16815260200134815250908060018154018082558091505090600182039060005260206000209060030201600090919290919091506000820151816000015560208201518160010160006101000a81548161ffff021916908361ffff16021790555060408201518160010160026101000a81548173ffffffffffffffffffffffffffffffffffffffff021916908373ffffffffffffffffffffffffffffffffffffffff1602179055506060820151816002015550505060016008805490500390506119fd565b600160098054905003905060405180608001604052808981526020018861ffff1681526020013373ffffffffffffffffffffffffffffffffffffffff1681526020013481525060088261ffff16815481106118fd57fe5b90600052602060002090600302016000820151816000015560208201518160010160006101000a81548161ffff021916908361ffff16021790555060408201518160010160026101000a81548173ffffffffffffffffffffffffffffffffffffffff021916908373ffffffffffffffffffffffffffffffffffffffff16021790555060608201518160020155905050600880548061199757fe5b60019003818190600052602060002090600302016000808201600090556001820160006101000a81549061ffff02191690556001820160026101000a81549073ffffffffffffffffffffffffffffffffffffffff02191690556002820160009055505090555b60405180606001604052808261ffff168152602001604a548a0361ffff1681526020018361ffff16815250600760008a815260200190815260200160002060008201518160000160006101000a81548161ffff021916908361ffff16021790555060208201518160000160026101000a81548161ffff021916908361ffff16021790555060408201518160000160046101000a81548161ffff021916908361ffff1602179055509050507ffa68de17b1a354b4bf40b65da7ecbbfa73b10372264d2f5b9e7051dc7bb76ed888888834604051808581526020018461ffff1661ffff1681526020018367ffffffffffffffff1667ffffffffffffffff16815260200182815260200194505050505060405180910390a15050505050505050565b600060018261ffff1610158015611b3957506101208261ffff1611155b611bab576040517f08c379a00000000000000000000000000000000000000000000000000000000081526004018080602001828103825260208152602001807f63616c63756c61746552657175697265644465706f7369745f696e7654696d6581525060200191505060405180910390fd5b456001546005840261ffff1602019050919050565b600460009054906101000a900460ff16611c42576040517f08c379a000000000000000000000000000000000000000000000000000000000815260040180806020018281038252601c8152602001807f72656769737465724465706f7369745f69734e6f74576f726b696e670000000081525060200191505060405180910390fd5b60006007600084815260200190815260200160002060000160009054906101000a900461ffff169050600560009054906101000a900473ffffffffffffffffffffffffffffffffffffffff1673ffffffffffffffffffffffffffffffffffffffff163373ffffffffffffffffffffffffffffffffffffffff1614611d2e576040517f08c379a000000000000000000000000000000000000000000000000000000000815260040180806020018281038252601f8152602001807f636c6f73654f726465725f696e76616c69644f7261636c65416464726573730081525060200191505060405180910390fd5b600060088054905014158015611db35750600073ffffffffffffffffffffffffffffffffffffffff1660088261ffff1681548110611d6857fe5b906000526020600020906003020160010160029054906101000a900473ffffffffffffffffffffffffffffffffffffffff1673ffffffffffffffffffffffffffffffffffffffff1614155b611e25576040517f08c379a000000000000000000000000000000000000000000000000000000000815260040180806020018281038252601c8152602001807f636c6f73654f726465725f6f72646572446f65734e6f7445786973740000000081525060200191505060405180910390fd5b600080905060008361ffff1614611e6a576001548361ffff160260088361ffff1681548110611e5057fe5b906000526020600020906003020160020154039050611e9d565b6064605f60088461ffff1681548110611e7f57fe5b9060005260206000209060030201600201540281611e9957fe5b0490505b8060088361ffff1681548110611eaf57fe5b90600052602060002090600302016002015403600660008282540192505081905550600982908060018154018082558091505090600182039060005260206000209060109182820401919006600202909192909190916101000a81548161ffff021916908361ffff1602179055505060088261ffff1681548110611f2f57fe5b90600052602060002090600302016000808201600090556001820160006101000a81549061ffff02191690556001820160026101000a81549073ffffffffffffffffffffffffffffffffffffffff0219169055600282016000905550506007600085815260200190815260200160002060000160029054906101000a900461ffff16915060006007600086815260200190815260200160002060000160049054906101000a900461ffff1690508061ffff168361ffff161015612042575b8061ffff168361ffff16101561203d576000600a8461ffff166107e0811061201157fe5b602091828204019190066101000a81548160ff0219169083151502179055508280600101935050611fed565b6120e7565b5b6107e08361ffff161015612091576000600a8461ffff166107e0811061206557fe5b602091828204019190066101000a81548160ff0219169083151502179055508280600101935050612043565b600092505b8061ffff168361ffff1610156120e6576000600a8461ffff166107e081106120ba57fe5b602091828204019190066101000a81548160ff0219169083151502179055508280600101935050612096565b5b60076000868152602001908152602001600020600080820160006101000a81549061ffff02191690556000820160026101000a81549061ffff02191690556000820160046101000a81549061ffff0219169055505060088361ffff168154811061214d57fe5b906000526020600020906003020160010160029054906101000a900473ffffffffffffffffffffffffffffffffffffffff1673ffffffffffffffffffffffffffffffffffffffff166108fc839081150290604051600060405180830381858888f193505050501580156121c4573d6000803e3d6000fd5b507f93b8ced0c91ddf9862e839966f1db9949aebca6fc64192a2a18be6ee16eb218185856000604051808481526020018361ffff1661ffff1681526020018267ffffffffffffffff168152602001935050505060405180910390a15050505050565b60015481565b50805460008255600f0160109004906000526020600020908101906122519190612293565b50565b50806107e0601f0160209004019061226c9190612293565b50565b508054600082556003029060005260206000209081019061229091906122b8565b50565b6122b591905b808211156122b1576000816000905550600101612299565b5090565b90565b61232091905b8082111561231c576000808201600090556001820160006101000a81549061ffff02191690556001820160026101000a81549073ffffffffffffffffffffffffffffffffffffffff02191690556002820160009055506003016122be565b5090565b9056fe646573747275637454686973436f6e74726163745f756e617574686f72697a6564a265627a7a723158204acf18c20ce63a3373f26a94d161c2a8ff14fa5ab68658b983646a9a79d0c08364736f6c63430005100032a265627a7a72315820df9052578247dd90472694b18e701af363505cd6f919abb3d360b8696de2d8c064736f6c63430005100032",
  "source": "pragma solidity ^0.5.8;\nimport \"./Charger.sol\";\n\n\ncontract ChargersListing {\n    mapping(uint64 => address) public chargers;\n    uint64[4] private chargersIndexes;\n\n\n    /**\n     * Method returns parameters of a registered station\n     * @param id        Charger's Id, must reffer to a working station\n     * @return          power, type-of-cable, tariff, latitude, longitude, isWorking\n     */\n    function getChargerInfo(uint64 id)\n        external\n        view\n        returns(uint16, Charger.TypeOfCable, uint, string memory, string memory, bool)\n    {\n        require(chargers[id] != address(0), \"getCharger_isNotRegistered\");\n        Charger targetCharger = Charger(chargers[id]);\n        return targetCharger.getInfo();\n    }\n\n    function getCharger(uint64 id)\n        external\n        view\n        returns(Charger)\n    {\n        require(chargers[id] != address(0), \"getCharger_isNotRegistered\");\n        Charger targetCharger = Charger(chargers[id]);\n        return targetCharger;\n    }\n\n    function getChargerRegisterDeposit(uint64 id,uint _startTime,\n                             uint16 _durationInFiveMinutes,\n                             uint64 _secretSessionId)\n        external\n    {\n        require(chargers[id] != address(0), \"getCharger_isNotRegistered\");\n        Charger targetCharger = Charger(chargers[id]);\n        return targetCharger.registerDeposit(_startTime, _durationInFiveMinutes, _secretSessionId);\n    }\n\n    function getAllChargersIndexes()\n        external\n        view\n        returns(uint64[4] memory)\n    {\n        return chargersIndexes;\n    }\n\n    function addCharger(uint64 id, uint16 _power, Charger.TypeOfCable _cableType, uint _tariff,\n                        string calldata _latitude, string calldata _longitude,\n                        address oracleAddress) external {\n        // require(chargers[id] != address(0), \"addCharger_chargerAlreadyExists\");\n        chargers[id] = address(new Charger(\n            _power,\n            _cableType,\n            _tariff,\n            _latitude,\n            _longitude,\n            oracleAddress,\n            msg.sender\n        ));\n        // chargersIndexes.push(id);\n        chargersIndexes[id] = id;\n    }\n\n    function deleteCharger(uint64 id) external {\n        require(chargers[id] != address(0), \"addCharger_doesNotExist\");\n        Charger targetCharger = Charger(chargers[id]);\n        require(targetCharger.ownerAddress() == msg.sender, \"addCharger_unauthorized\");\n        delete chargers[id];\n    }\n}\n",
  "sourcePath": "/home/snumbrikvolgo/ChargerProject/contracts/ChargersListing.sol",
  "compiler": {
    "name": "solc",
    "version": "0.5.16+commit.9c3226ce.Emscripten.clang"
  },
  "schemaVersion": "3.4.3",
  "updatedAt": "2021-11-29T22:07:21.970Z",
  "networkType": "ethereum",
  "devdoc": {
    "methods": {
      "getChargerInfo(uint64)": {
        "params": {
          "id": "Charger's Id, must reffer to a working station"
        },
        "return": "power, type-of-cable, tariff, latitude, longitude, isWorking"
      }
    }
  },
  "userdoc": {
    "methods": {
      "getChargerInfo(uint64)": {
        "notice": "Method returns parameters of a registered station"
      }
    }
  }
}